{
    "contractName": "CrowdFundingFactory",
    "abi": [
        {
            "inputs": [],
            "stateMutability": "nonpayable",
            "type": "constructor"
        },
        {
            "inputs": [
                {
                    "internalType": "uint256",
                    "name": "",
                    "type": "uint256"
                }
            ],
            "name": "campaigns",
            "outputs": [
                {
                    "internalType": "address",
                    "name": "campaignAddress",
                    "type": "address"
                },
                {
                    "internalType": "address",
                    "name": "owner",
                    "type": "address"
                },
                {
                    "internalType": "string",
                    "name": "name",
                    "type": "string"
                },
                {
                    "internalType": "uint256",
                    "name": "createdAt",
                    "type": "uint256"
                }
            ],
            "stateMutability": "view",
            "type": "function"
        },
        {
            "inputs": [
                {
                    "internalType": "string",
                    "name": "_name",
                    "type": "string"
                },
                {
                    "internalType": "uint256",
                    "name": "_durationInDays",
                    "type": "uint256"
                },
                {
                    "internalType": "uint256",
                    "name": "_goal",
                    "type": "uint256"
                },
                {
                    "internalType": "string",
                    "name": "_description",
                    "type": "string"
                }
            ],
            "name": "createCampaign",
            "outputs": [],
            "stateMutability": "nonpayable",
            "type": "function"
        },
        {
            "inputs": [],
            "name": "getAllCampaigns",
            "outputs": [
                {
                    "components": [
                        {
                            "internalType": "address",
                            "name": "campaignAddress",
                            "type": "address"
                        },
                        {
                            "internalType": "address",
                            "name": "owner",
                            "type": "address"
                        },
                        {
                            "internalType": "string",
                            "name": "name",
                            "type": "string"
                        },
                        {
                            "internalType": "uint256",
                            "name": "createdAt",
                            "type": "uint256"
                        }
                    ],
                    "internalType": "struct CrowdFundingFactory.Campaign[]",
                    "name": "",
                    "type": "tuple[]"
                }
            ],
            "stateMutability": "view",
            "type": "function"
        },
        {
            "inputs": [
                {
                    "internalType": "address",
                    "name": "campaignOwenerAddress",
                    "type": "address"
                }
            ],
            "name": "getCampaignsOfUser",
            "outputs": [
                {
                    "components": [
                        {
                            "internalType": "address",
                            "name": "campaignAddress",
                            "type": "address"
                        },
                        {
                            "internalType": "address",
                            "name": "owner",
                            "type": "address"
                        },
                        {
                            "internalType": "string",
                            "name": "name",
                            "type": "string"
                        },
                        {
                            "internalType": "uint256",
                            "name": "createdAt",
                            "type": "uint256"
                        }
                    ],
                    "internalType": "struct CrowdFundingFactory.Campaign[]",
                    "name": "",
                    "type": "tuple[]"
                }
            ],
            "stateMutability": "view",
            "type": "function"
        },
        {
            "inputs": [],
            "name": "isPaused",
            "outputs": [
                {
                    "internalType": "bool",
                    "name": "",
                    "type": "bool"
                }
            ],
            "stateMutability": "view",
            "type": "function"
        },
        {
            "inputs": [],
            "name": "owner",
            "outputs": [
                {
                    "internalType": "address",
                    "name": "",
                    "type": "address"
                }
            ],
            "stateMutability": "view",
            "type": "function"
        },
        {
            "inputs": [],
            "name": "pauseAndResumeCampaing",
            "outputs": [],
            "stateMutability": "nonpayable",
            "type": "function"
        },
        {
            "inputs": [
                {
                    "internalType": "address",
                    "name": "",
                    "type": "address"
                },
                {
                    "internalType": "uint256",
                    "name": "",
                    "type": "uint256"
                }
            ],
            "name": "userCampaigns",
            "outputs": [
                {
                    "internalType": "address",
                    "name": "campaignAddress",
                    "type": "address"
                },
                {
                    "internalType": "address",
                    "name": "owner",
                    "type": "address"
                },
                {
                    "internalType": "string",
                    "name": "name",
                    "type": "string"
                },
                {
                    "internalType": "uint256",
                    "name": "createdAt",
                    "type": "uint256"
                }
            ],
            "stateMutability": "view",
            "type": "function"
        }
    ],
    "bytecode": "608080604052346026575f80546001600160a01b0319163317905561203d908161002b8239f35b5f80fdfe60806040526004361015610011575f80fd5b5f3560e01c806307ce53551461044d578063141961bc1461038057806319ac74bd1461030257806367a01d3d1461027257806386cdf604146101a45780638da5cb5b1461017d578063b187bd26146101595763dbe7283314610071575f80fd5b34610155576020366003190112610155576001600160a01b03610092610a5a565b165f52600260205260405f20805467ffffffffffffffff811161014157604051916100c360208360051b0184610897565b81835260208301905f5260205f205f915b8383106100ed57604051806100e98782610a70565b0390f35b600460206001926040516101008161087b565b855460a086901b869003908116825286860154168382015261012460028701610960565b6040820152600386015460608201528152019201920191906100d4565b634e487b7160e01b5f52604160045260245ffd5b5f80fd5b34610155575f36600319011261015557602060ff5f5460a01c166040519015158152f35b34610155575f366003190112610155575f546040516001600160a01b039091168152602090f35b34610155575f3660031901126101555760015467ffffffffffffffff811161014157604051906101da60208260051b0183610897565b8082526020820160015f527fb10e2d527612073b26eecdfd717e6a320cf44b4afac2b0732d9fcbe2b7fa0cf65f915b83831061021e57604051806100e98782610a70565b600460206001926040516102318161087b565b855460a086901b869003908116825286860154168382015261025560028701610960565b604082015260038601546060820152815201920192019190610209565b34610155575f366003190112610155575f546001600160a01b03811633036102b35760ff60a01b19811660a091821c60ff161590911b60ff60a01b16175f55005b60405162461bcd60e51b815260206004820152602160248201527f4f6e6c79206f776e65722063616e2063616c6c20746869732066756e6374696f6044820152603760f91b6064820152608490fd5b346101555760403660031901126101555761031b610a5a565b6001600160a01b03165f908152600260205260409020805460243590811015610155576103479161090f565b50805460018201546001600160a01b03908116929116906100e990600361037060028301610960565b9101549060405194859485610a24565b3461015557602036600319011261015557600435600154811015610155576001548110156104395760015f5260021b7fb10e2d527612073b26eecdfd717e6a320cf44b4afac2b0732d9fcbe2b7fa0cf6810180547fb10e2d527612073b26eecdfd717e6a320cf44b4afac2b0732d9fcbe2b7fa0cf78301546001600160a01b03908116939116916100e991600390610370907fb10e2d527612073b26eecdfd717e6a320cf44b4afac2b0732d9fcbe2b7fa0cf801610960565b634e487b7160e01b5f52603260045260245ffd5b346101555760803660031901126101555760043567ffffffffffffffff81116101555761047e9036906004016108b9565b60643567ffffffffffffffff81116101555761049e9036906004016108b9565b60ff5f5460a01c1661084157604051906115038083019083821067ffffffffffffffff8311176101415783926104f891610b05853933835260a060208401526104ea60a0840187610a00565b908382036040850152610a00565b906044356060820152608060243591015203905ff0801561083657604051906105208261087b565b60018060a01b0316815260208101338152604082019283526060820190428252335f52600260205260405f208054600160401b811015610141576105699160018201815561090f565b61076557835181546001600160a01b039182166001600160a01b0319918216178355835160018401805491909316911617905584518051600283019167ffffffffffffffff82116101415781906105c08454610928565b601f81116107e6575b50602090601f8311600114610783575f92610778575b50508160011b915f199060031b1c19161790555b60038351910155600154600160401b8110156101415780600161061b9201600155600161090f565b939093610765575183546001600160a01b03199081166001600160a01b039283161785559151600185018054909316911617905591518051909290600283019067ffffffffffffffff8111610141576106748254610928565b601f8111610720575b506020601f82116001146106bc578190600395965f926106b1575b50508160011b915f1990861b1c19161790555b51910155005b015190508680610698565b601f19821695835f52815f20965f5b81811061070857509160039697918460019594106106f1575b505050811b0190556106ab565b01515f1983881b60f8161c191690558680806106e4565b838301518955600190980197602093840193016106cb565b825f5260205f20601f830160051c8101916020841061075b575b601f0160051c01905b818110610750575061067d565b5f8155600101610743565b909150819061073a565b634e487b7160e01b5f525f60045260245ffd5b0151905088806105df565b5f8581528281209350601f198516905b8181106107ce57509084600195949392106107b6575b505050811b0190556105f3565b01515f1960f88460031b161c191690558880806107a9565b92936020600181928786015181550195019301610793565b909150835f5260205f20601f840160051c8101916020851061082c575b90601f859493920160051c01905b81811061081e57506105c9565b5f8155849350600101610811565b9091508190610803565b6040513d5f823e3d90fd5b60405162461bcd60e51b815260206004820152601260248201527110dbdb9d1c9858dd081a5cc81c185d5cd95960721b6044820152606490fd5b6080810190811067ffffffffffffffff82111761014157604052565b90601f8019910116810190811067ffffffffffffffff82111761014157604052565b81601f820112156101555780359067ffffffffffffffff821161014157604051926108ee601f8401601f191660200185610897565b8284526020838301011161015557815f926020809301838601378301015290565b8054821015610439575f5260205f209060021b01905f90565b90600182811c92168015610956575b602083101461094257565b634e487b7160e01b5f52602260045260245ffd5b91607f1691610937565b9060405191825f82549261097384610928565b80845293600181169081156109de575060011461099a575b5061099892500383610897565b565b90505f9291925260205f20905f915b8183106109c2575050906020610998928201015f61098b565b60209193508060019154838589010152019101909184926109a9565b90506020925061099894915060ff191682840152151560051b8201015f61098b565b805180835260209291819084018484015e5f828201840152601f01601f1916010190565b6001600160a01b0391821681529116602082015260806040820181905290939291606091610a559190860190610a00565b930152565b600435906001600160a01b038216820361015557565b602081016020825282518091526040820191602060408360051b8301019401925f915b838310610aa257505050505090565b9091929394602080600192603f19858203018652885190848060a01b038251168152848060a01b03838301511683820152606080610aef6040850151608060408601526080850190610a00565b93015191015297019301930191939290610a9356fe60806040523461039a57611503803803806100198161039e565b928339810160a08282031261039a5781516001600160a01b038116919082900361039a5760208301516001600160401b03811161039a578161005c9185016103c3565b604084015190916001600160401b03821161039a5761007c9185016103c3565b92608060608201519101519180519060018060401b0382116102a1575f5490600182811c92168015610390575b60208310146102835781601f849311610323575b50602090601f83116001146102c0575f926102b5575b50508160011b915f199060031b1c1916175f555b83516001600160401b0381116102a157600154600181811c91168015610297575b602082101461028357601f8111610220575b50602094601f82116001146101bd579481929394955f926101b2575b50508160011b915f199060031b1c1916176001555b6002556201518081029080820462015180149015171561019e57420180421161019e57600355600480546001600160a01b0319169190911790556006805460ff191690556040516110ee90816104158239f35b634e487b7160e01b5f52601160045260245ffd5b015190505f80610136565b601f1982169560015f52805f20915f5b888110610208575083600195969798106101f0575b505050811b0160015561014b565b01515f1960f88460031b161c191690555f80806101e2565b919260206001819286850151815501940192016101cd565b60015f527fb10e2d527612073b26eecdfd717e6a320cf44b4afac2b0732d9fcbe2b7fa0cf6601f830160051c81019160208410610279575b601f0160051c01905b81811061026e575061011a565b5f8155600101610261565b9091508190610258565b634e487b7160e01b5f52602260045260245ffd5b90607f1690610108565b634e487b7160e01b5f52604160045260245ffd5b015190505f806100d3565b5f8080528281209350601f198516905b81811061030b57509084600195949392106102f3575b505050811b015f556100e7565b01515f1960f88460031b161c191690555f80806102e6565b929360206001819287860151815501950193016102d0565b5f80529091507f290decd9548b62a8d60345a988386fc84ba6bc95484008f6362f93160ef3e563601f840160051c81019160208510610386575b90601f859493920160051c01905b81811061037857506100bd565b5f815584935060010161036b565b909150819061035d565b91607f16916100a9565b5f80fd5b6040519190601f01601f191682016001600160401b038111838210176102a157604052565b81601f8201121561039a578051906001600160401b0382116102a1576103f2601f8301601f191660200161039e565b928284526020838301011161039a57815f9260208093018386015e830101529056fe60806040526004361015610011575f80fd5b5f3560e01c8063039af9eb14610c8257806306fdde0314610c665780630d10f3b514610c2d578063105505151461010057806329dcb0cf14610c105780633ccfd60b14610b265780634019388314610b09578063590e1ae314610a105780636f9fb98a146109f55780637284e416146109175780637497211b146107a35780637adba527146107575780637b463785146107245780638da5cb5b146106fc5780638ece7b91146104eb578063929d812a146104b0578063b85dfb8014610468578063ca1d209d14610295578063de17057014610152578063dfa9608a1461012d5763f3a4721a14610100575f80fd5b34610129575f3660031901126101295761012560ff6006541660405191829182610e4e565b0390f35b5f80fd5b34610129575f36600319011261012957602060ff60045460a01c166040519015158152f35b34610129575f3660031901126101295760075467ffffffffffffffff8111610281576040519061018860208260051b0183610d68565b80825260208201908160075f527fa66cc928b5edb82af9bd49922954155ab7b0942694bea4ce44661d9a8736c6885f915b83831061024357848660405191829160208301906020845251809152604083019060408160051b85010192915f905b8282106101f757505050500390f35b919360019193955060208091603f198982030185528751906040806102258451606085526060850190610e2a565b938581015186850152015191015296019201920185949391926101e8565b6003602060019260405161025681610d4c565b61025f86610d8a565b81528486015483820152600286015460408201528152019201920191906101b9565b634e487b7160e01b5f52604160045260245ffd5b60203660031901126101295760043560035442101561042e5760ff60065416600381101561041a576103dc5760ff60045460a01c166103a2576102db6007548210610ecd565b60016102e682610ce4565b500154340361036c5760026102fa82610ce4565b500180545f198114610358576001019055610313611060565b335f526005602052600160405f20018054903482018092116103585755335f526005602052600260405f2001905f5260205260405f20600160ff198254161790555f80f35b634e487b7160e01b5f52601160045260245ffd5b60405162461bcd60e51b815260206004820152600e60248201526d125b9d985b1a5908185b5bdd5b9d60921b6044820152606490fd5b60405162461bcd60e51b815260206004820152601260248201527110d85b5c185a59db881a5cc81c185d5cd95960721b6044820152606490fd5b60405162461bcd60e51b815260206004820152601660248201527543616d706169676e206973206e6f742061637469766560501b6044820152606490fd5b634e487b7160e01b5f52602160045260245ffd5b60405162461bcd60e51b815260206004820152601260248201527110d85b5c185a59db881a185cc8195b99195960721b6044820152606490fd5b34610129576020366003190112610129576001600160a01b03610489610e61565b165f5260056020526040805f206001808060a01b0382541691015482519182526020820152f35b34610129576020366003190112610129576001600160a01b036104d1610e61565b165f5260056020526020600160405f200154604051908152f35b346101295760403660031901126101295760043567ffffffffffffffff8111610129573660238201121561012957806004013567ffffffffffffffff81116102815760405191610545601f8301601f191660200184610d68565b818352366024838301011161012957815f9260246020930183860137830101526024359061057e60018060a01b03600454163314610e77565b81156106b7576040519061059182610d4c565b815260208101918252604081015f815260075468010000000000000000811015610281578060016105c59201600755610ce4565b9290926106a4575192835167ffffffffffffffff8111610281576105f3816105ed8654610d14565b86610f24565b6020601f821160011461063f57908061062592600296975f92610634575b50508160011b915f199060031b1c19161790565b84555b51600184015551910155005b015190508780610611565b601f19821695855f52815f20965f5b81811061068c5750916002969791846001959410610674575b505050811b018455610628565b01515f1960f88460031b161c19169055868080610667565b8383015189556001909801976020938401930161064e565b634e487b7160e01b5f525f60045260245ffd5b60405162461bcd60e51b815260206004820152601d60248201527f416d6f756e74206d7573742062652067726561746572207468616e20300000006044820152606490fd5b34610129575f366003190112610129576004546040516001600160a01b039091168152602090f35b34610129575f3660031901126101295760045461074b336001600160a01b03831614610e77565b60ff60a01b1916600455005b34610129576040366003190112610129576001600160a01b03610778610e61565b165f526005602052600260405f20016024355f52602052602060ff60405f2054166040519015158152f35b34610129576020366003190112610129576004356107cc60018060a01b03600454163314610e77565b6007546107da818310610ecd565b60026107e583610ce4565b5001546108d2575f1981019081116103585761080361080a91610ce4565b5091610ce4565b9190916106a4578082036108ae575b5050600754801561089a575f190161083081610ce4565b6106a4576002816108425f9354610d14565b80610857575b50600181018390550155600755005b601f811160011461086d57508281555b84610848565b8184526020842061088991601f0160051c810190600101610f0e565b808352826020812081835555610867565b634e487b7160e01b5f52603160045260245ffd5b6002816108bc829385610f67565b6001810154600185015501549101558080610819565b60405162461bcd60e51b815260206004820152601f60248201527f43616e6e6f742072656d6f766520746965722077697468206261636b657273006044820152606490fd5b34610129575f366003190112610129576040515f60015461093781610d14565b80845290600181169081156109d15750600114610973575b6101258361095f81850382610d68565b604051918291602083526020830190610e2a565b60015f9081527fb10e2d527612073b26eecdfd717e6a320cf44b4afac2b0732d9fcbe2b7fa0cf6939250905b8082106109b75750909150810160200161095f61094f565b91926001816020925483858801015201910190929161099f565b60ff191660208086019190915291151560051b8401909101915061095f905061094f565b34610129575f36600319011261012957602047604051908152f35b34610129575f36600319011261012957610a28611060565b60ff60065416600381101561041a57600203610ac457335f526005602052600160405f2001548015610a7f575f8080809333825260056020528160016040822001553382f115610a7457005b6040513d5f823e3d90fd5b60405162461bcd60e51b815260206004820152601960248201527f4e6f20636f6e747269627574696f6e20746f20726566756e64000000000000006044820152606490fd5b60405162461bcd60e51b815260206004820152601760248201527f526566756e64206973206e6f7420617661696c61626c650000000000000000006044820152606490fd5b34610129575f366003190112610129576020600254604051908152f35b34610129575f36600319011261012957610b4b60018060a01b03600454163314610e77565b610b53611060565b60ff60065416600381101561041a57600103610bcb57478015610b8d576004545f918291829182916001600160a01b031682f115610a7457005b60405162461bcd60e51b81526020600482015260166024820152754e6f2062616c616e636520746f20776974686472617760501b6044820152606490fd5b60405162461bcd60e51b815260206004820152601a60248201527f43616d706169676e206973206e6f74207375636365737366756c0000000000006044820152606490fd5b34610129575f366003190112610129576020600354604051908152f35b34610129575f36600319011261012957600454610c54336001600160a01b03831614610e77565b60ff60a01b1916600160a01b17600455005b34610129575f3660031901126101295761012561095f5f610d8a565b346101295760203660031901126101295760043560075481101561012957610cac610cd591610ce4565b50610cb681610d8a565b9060026001820154910154604051938493606085526060850190610e2a565b91602084015260408301520390f35b600754811015610d005760075f52600360205f20910201905f90565b634e487b7160e01b5f52603260045260245ffd5b90600182811c92168015610d42575b6020831014610d2e57565b634e487b7160e01b5f52602260045260245ffd5b91607f1691610d23565b6060810190811067ffffffffffffffff82111761028157604052565b90601f8019910116810190811067ffffffffffffffff82111761028157604052565b9060405191825f825492610d9d84610d14565b8084529360018116908115610e085750600114610dc4575b50610dc292500383610d68565b565b90505f9291925260205f20905f915b818310610dec575050906020610dc2928201015f610db5565b6020919350806001915483858901015201910190918492610dd3565b905060209250610dc294915060ff191682840152151560051b8201015f610db5565b805180835260209291819084018484015e5f828201840152601f01601f1916010190565b91906020830192600382101561041a5752565b600435906001600160a01b038216820361012957565b15610e7e57565b60405162461bcd60e51b815260206004820152602160248201527f4f6e6c79206f776e65722063616e2063616c6c20746869732066756e6374696f6044820152603760f91b6064820152608490fd5b15610ed457565b60405162461bcd60e51b8152602060048201526012602482015271092dcecc2d8d2c840e8d2cae440d2dcc8caf60731b6044820152606490fd5b818110610f19575050565b5f8155600101610f0e565b9190601f8111610f3357505050565b610dc2925f5260205f20906020601f840160051c83019310610f5d575b601f0160051c0190610f0e565b9091508190610f50565b91909182811461104257610f7b8354610d14565b67ffffffffffffffff811161028157610f9e81610f988454610d14565b84610f24565b5f93601f8211600114610fdc57610fcd92939482915f92610fd15750508160011b915f199060031b1c19161790565b9055565b015490505f80610611565b601f198216905f5260205f2094835f5260205f20915f5b81811061102a57509583600195969710611012575b505050811b019055565b01545f1960f88460031b161c191690555f8080611008565b9192600180602092868b015481550194019201610ff3565b509050565b600381101561041a5760ff801960065416911617600655565b60ff60065416600381101561041a571561107657565b600354421061109c57600254471061109257610dc26001611047565b610dc26002611047565b60025447106110af57610dc26001611047565b610dc25f61104756fea26469706673582212207c15eb9fe5ce7dd354dc5d0ee93f7ce7c2f9e36868b098c1521fbb8b53383a7364736f6c634300081d0033a264697066735822122093f526260306d459e76495b0640d4703f79fc1872918c356e2cdf5e3f8a92e5d64736f6c634300081d0033",
    "sourcePath": "/Users/yuliababenko/Documents/miro/coding/web3/src/contracts/CrowdFundingFactory.sol",
    "compiler": {
        "name": "solc",
        "version": "0.8.29+commit.ab55807c"
    },
    "functionHashes": {
        "campaigns(uint256)": "141961bc",
        "createCampaign(string,uint256,uint256,string)": "07ce5355",
        "getAllCampaigns()": "86cdf604",
        "getCampaignsOfUser(address)": "dbe72833",
        "isPaused()": "b187bd26",
        "owner()": "8da5cb5b",
        "pauseAndResumeCampaing()": "67a01d3d",
        "userCampaigns(address,uint256)": "19ac74bd"
    },
    "gasEstimates": {
        "creation": {
            "codeDepositCost": "1650600",
            "executionCost": "25973",
            "totalCost": "1676573"
        },
        "external": {
            "campaigns(uint256)": "infinite",
            "createCampaign(string,uint256,uint256,string)": "infinite",
            "getAllCampaigns()": "infinite",
            "getCampaignsOfUser(address)": "infinite",
            "isPaused()": "2397",
            "owner()": "2381",
            "pauseAndResumeCampaing()": "24493",
            "userCampaigns(address,uint256)": "infinite"
        }
    }
}